:020000040000fa
:080000000002040000000000f2
:020000040000fa
:040008000c030000e5
:020000040000fa
:04000c000c030000e1
:020000040000fa
:040010000c030000dd
:020000040000fa
:040014000c030000d9
:020000040000fa
:040018000c030000d5
:020000040000fa
:04001c000c030000d1
:020000040000fa
:040020000c030000cd
:020000040000fa
:040024000c030000c9
:020000040000fa
:040028000c030000c5
:020000040000fa
:04002c000c030000c1
:020000040000fa
:040030000c030000bd
:020000040000fa
:04003400dc020000ea
:020000040000fa
:040038000c030000b5
:020000040000fa
:04003c000c030000b1
:020000040000fa
:040040000c030000ad
:020000040000fa
:040044000c030000a9
:020000040000fa
:040048000c030000a5
:020000040000fa
:04004c000c030000a1
:020000040000fa
:040050000c0300009d
:020000040000fa
:040054000c03000099
:020000040000fa
:040058000c03000095
:020000040000fa
:04005c000c03000091
:020000040000fa
:040060000c0300008d
:020000040000fa
:040064000c03000089
:020000040000fa
:040068000c03000085
:020000040000fa
:04006c000c03000081
:020000040000fa
:040070000c0300007d
:020000040000fa
:040074000c03000079
:020000040000fa
:040078000c03000075
:020000040000fa
:04007c000c03000071
:020000040000fa
:040080000c0300006d
:020000040000fa
:040084000c03000069
:020000040000fa
:040088000c03000065
:020000040000fa
:04008c000c03000061
:020000040000fa
:040090000c0300005d
:020000040000fa
:040094000c03000059
:020000040000fa
:040098000c03000055
:020000040000fa
:04009c000c03000051
:020000040000fa
:0400a0000c0300004d
:020000040000fa
:0400a4000c03000049
:020000040000fa
:0400a8000c03000045
:020000040000fa
:0400ac000c03000041
:020000040000fa
:0400b0000c0300003d
:020000040000fa
:0400b4000c03000039
:020000040000fa
:0400b8000c03000035
:020000040000fa
:0400bc000c03000031
:020000040000fa
:0400c0000c0300002d
:020000040000fa
:0400c4000c03000029
:020000040000fa
:0400c8000c03000025
:020000040000fa
:0400cc000c03000021
:020000040000fa
:0400d0000c0300001d
:020000040000fa
:0400d4000c03000019
:020000040000fa
:0400d8000c03000015
:020000040000fa
:0400dc000c03000011
:020000040000fa
:0400e0000c0300000d
:020000040000fa
:0400e4000c03000009
:020000040000fa
:0400e8000c03000005
:020000040000fa
:0400ec000c03000001
:020000040000fa
:0400f0000c030000fd
:020000040000fa
:0400f4000c030000f9
:020000040000fa
:0400f8000c030000f5
:020000040000fa
:0400fc000c030000f1
:020000040000fa
:040100000c030000ec
:020000040000fa
:040104000c030000e8
:020000040000fa
:040108000c030000e4
:020000040000fa
:04010c000c030000e0
:020000040000fa
:040110000c030000dc
:020000040000fa
:040114000c030000d8
:020000040000fa
:040118000c030000d4
:020000040000fa
:04011c000c030000d0
:020000040000fa
:040120000c030000cc
:020000040000fa
:040124000c030000c8
:020000040000fa
:040128000c030000c4
:020000040000fa
:04012c000c030000c0
:020000040000fa
:040130000c030000bc
:020000040000fa
:040134000c030000b8
:020000040000fa
:040208000c030000e3
:020000040000fa
:04020c000c030000df
:020000040000fa
:040210000c030000db
:020000040000fa
:040214000c030000d7
:020000040000fa
:040218000c030000d3
:020000040000fa
:04021c000c030000cf
:020000040000fa
:040220000c030000cb
:020000040000fa
:040224000c030000c7
:020000040000fa
:040228000c030000c3
:020000040000fa
:04022c000c030000bf
:020000040000fa
:040230000c030000bb
:020000040000fa
:04023400dc020000e8
:020000040000fa
:040238000c030000b3
:020000040000fa
:04023c000c030000af
:020000040000fa
:040240000c030000ab
:020000040000fa
:040244000c030000a7
:020000040000fa
:040248000c030000a3
:020000040000fa
:04024c000c0300009f
:020000040000fa
:040250000c0300009b
:020000040000fa
:040254000c03000097
:020000040000fa
:040258000c03000093
:020000040000fa
:04025c000c0300008f
:020000040000fa
:040260000c0300008b
:020000040000fa
:040264000c03000087
:020000040000fa
:040268000c03000083
:020000040000fa
:04026c000c0300007f
:020000040000fa
:040270000c0300007b
:020000040000fa
:040274000c03000077
:020000040000fa
:040278000c03000073
:020000040000fa
:04027c000c0300006f
:020000040000fa
:040280000c0300006b
:020000040000fa
:040284000c03000067
:020000040000fa
:040288000c03000063
:020000040000fa
:04028c000c0300005f
:020000040000fa
:040290000c0300005b
:020000040000fa
:040294000c03000057
:020000040000fa
:040298000c03000053
:020000040000fa
:04029c000c0300004f
:020000040000fa
:0402a0000c0300004b
:020000040000fa
:0402a4000c03000047
:020000040000fa
:0402a8000c03000043
:020000040000fa
:0402ac000c0300003f
:020000040000fa
:0402b0000c0300003b
:020000040000fa
:0402b4000c03000037
:020000040000fa
:0402b8000c03000033
:020000040000fa
:0402bc000c0300002f
:020000040000fa
:0402c0000c0300002b
:020000040000fa
:0402c4000c03000027
:020000040000fa
:0402c8000c03000023
:020000040000fa
:0402cc000c0300001f
:020000040000fa
:0402d0000c0300001b
:020000040000fa
:0402d4000c03000017
:020000040000fa
:0402d8000c03000013
:020000040000fa
:0402dc000c0300000f
:020000040000fa
:0402e0000c0300000b
:020000040000fa
:0402e4000c03000007
:020000040000fa
:0402e8000c03000003
:020000040000fa
:0402ec000c030000ff
:020000040000fa
:0402f0000c030000fb
:020000040000fa
:0402f4000c030000f7
:020000040000fa
:0402f8000c030000f3
:020000040000fa
:0402fc000c030000ef
:020000040000fa
:040300000c030000ea
:020000040000fa
:040304000c030000e6
:020000040000fa
:040308000c030000e2
:020000040000fa
:04030c000c030000de
:020000040000fa
:040310000c030000da
:020000040000fa
:040314000c030000d6
:020000040000fa
:040318000c030000d2
:020000040000fa
:04031c000c030000ce
:020000040000fa
:040320000c030000ca
:020000040000fa
:040324000c030000c6
:020000040000fa
:040328000c030000c2
:020000040000fa
:04032c000c030000be
:020000040000fa
:040330000c030000ba
:020000040000fa
:040334000c030000b6
:020000040000fa
:100400006fc721000e7f22000e018800000000004f
:10041000000020000000e000020032000001200087
:1004200020028800140007007d0007000000e000a3
:1004300003003a008074220001002000020037000f
:100440000000200001002000810f70000100320038
:1004500014000700000020000000e000020032004d
:100460000000020000000000402602000000000022
:100470000040da000000fe004440a900a003200074
:100480000000e0000300320000002000a00188000e
:100490004440a800000006008a1f78008b1f7800e7
:1004a0000000060091018800800478000000eb0045
:1004b0001a003700e284440032a0b4009905ba0063
:1004c000e284440032a0b4009906ba00e2844400f9
:1004d00032a0b4000006eb00476fde00fd07b2005b
:1004e000636ce10003003a00ebff07000000eb0043
:1004f0000a003700606ce10004003a00005deb0088
:100500008b05e900fdff3e00040037006168e10053
:10051000010032000086eb000b00070019c7ba008b
:100520001905ba000e04e00003003a000a00e000da
:10053000e0ff3a0000000600fe07b2009e018800be
:100540008a047800f5ff3700395dba008b05e900b1
:100550000c003200295dba008b05e900080032006a
:100560000c00e00003003a00e284440032a0b40032
:10057000f5ff370019ddba008b05e900faff3a00f4
:100580008904e800e184440032a0b40000000600c1
:1005900004250400000000003225040000000000d3
:1005a00068250400000000009625040000000000fb
:1005b0009a0c0400000000003600f800809fbe0086
:1005c000829fbe00849fbe00869fbe003400f8005c
:1005d00000002000a00188000000fa008460a9004b
:1005e000f70207000000e00003003200b02602001e
:1005f00000000000000000000080fa003400f90054
:100600004f03be004f02be004f01be004f00be00b0
:100610003600f900004006000040da000000fe004d
:10062000000005008001780002003700b159780011
:100630000201e9000200e000fcff3a0000000600b1
:020000040000fa
:100640001111000022220000333300004444000056
:100650005555000066660000777700008888000026
:1006600099990000aaaa0000bbbb0000cccc0000f6
:10067000dddd0000eeee0000cecd0000acab0000f2
:10068000726f000074720000007200006f7400004e
:1006900070000000746500006d72000000740000be
:1006a000656d000070000000494400004c450000ea
:0406b0000000000046
:020000040000fa
:1006b4001000fa0064034700000b7800660047004e
:1006c4000108780068004700020878006a004700c3
:1006d400030878006c004700040878006e004700a7
:1006e40005087800600220002a110700000f780036
:1006f4001e0078000000e00011003200680047008e
:1007040010007800000040002211070080007800eb
:100714001e00780078004000010878001e00780070
:1007240078004000100078000000e00004003a0067
:100734001e007800431107000000eb00000f780052
:100744001e0078000000e000190032006800470035
:10075400100078008000eb000001eb00821f78009d
:100764009e0378006e014700120378006c01470075
:10077400920278006a014700120278000001be006c
:10078400660047009000780064004700100078007d
:100794000e0007008f87e9001e0078009a0007000a
:1007a400110020000e80e8000108780003003700e3
:1007b4008080eb000e80e800010878000e80e800dd
:1007c400100078000080fa00000006001400fa000f
:1007d400881f780064044700000c78006600470016
:1007e40001087800680047000288be006c004700da
:1007f400040878006e004700050878007000470080
:100804000608780072004700070878007200470065
:10081400900078000e80e800f8804000110878000d
:1008240072004700100078007800400090007800c3
:100834006800470010017800f0ff27000000410025
:1008440000004000808040007200470010007800e3
:100854007e00400001087800660047001000780020
:100864000000e0001e0032000000eb00000f7800e2
:100874001000370066004700100078001e0040009a
:100884009040780072004700100078001e0040007d
:100894007a004000014878006600470010007800a4
:1008a4001e004000104078000004e0000500320003
:1008b4001e0fe8001e007800e30f5000edff360025
:1008c40001003700000000007200470010007800ab
:1008d4008040eb007d0040000148780005003700af
:1008e40072004700100078008040eb007a0040005e
:1008f400014878006e00470010007800e30f5000b4
:1009040003003600310020006e0047000108780023
:10091400720047001000780076004000ee004700a7
:100924001108780072004700100078000080e80089
:10093400b50e070072004700100078006c004000fc
:10094400b10e0700720047001000780068004000f4
:10095400f2004700110878006e004700100078008c
:10096400e400100072004700100078006c004000a2
:1009740001087800720047001000780072004000ff
:10098400f200470011087800720047001001780057
:100994006000b8000202b0000089be007200470087
:1009a400100078008040eb004002b000014878005d
:1009b4006c00470010017800640047009000780044
:1009c4000e80e80010007800400f070080007800d7
:1009d400720047001000780001087800700047009a
:1009e400100078000000e0000400320070004700ae
:1009f4009000780072004700900878004f04780057
:100a04000080fa00000006000200fa00000f7800df
:100a1400e10f0700304080000000e800304088000b
:100a2400004080000000e00007003a009e007800cb
:100a34000140880030408000e10f50000f003a0070
:100a4400bf0307000d003700604080000000e00095
:100a54000a003a00004080007600400090007800d0
:100a64001e0078007600400010007800808f50004f
:100a740002003e009e00780001408800a0408000f3
:100a84000000e800a04088001e00780076004000c6
:100a94009000780050408000808f500004003600a1
:100aa4001e00780076004000100078005040880056
:100ab4001e81e8001e0078007600400010007800d7
:100ac4006a00b9008000780060c221000080400004
:100ad40082007800540e0700bc0f070060408000bd
:100ae4000000e0000b00320000408000760040006f
:100af400900078001e007800760040001000780016
:100b0400808f500003003100b02602000000000076
:100b1400000000000080fa00000006000400fa0053
:100b24008e80e800800878000000eb00000f780059
:100b34000e80e800100078000000e000070032009a
:100b44000f0107008000eb000e80e8001000780021
:100b54000e06070010010700000f78001e00780041
:100b64000000e00003003a00b0260200000000008c
:100b7400000000000080fa00000006000400fa00f3
:100b84008e80e80080087800830f07000e80e8005c
:100b9400100078000000e00002003a0000408000ed
:100ba400020037000e80e80010007800000f780083
:100bb4001e80e8008e0e07001e00780074004000be
:100bc400100078000000e000030032009e0078006e
:100bd4006c804000860e07001e80e80080007800cc
:100be400c0c62100100e07001e0078004002b000ad
:100bf40010407800e14f500004003a001e007800d5
:100c04008040eb004002b000014878006f0f0700fd
:100c1400604080000000e000030032005e0f070027
:100c240066030700690f0700004080009e007800fb
:100c3400808f50000e003a00604080000000e00009
:100c440004003200b0260200000000000000000092
:100c54000700370061e3800030408000808f50003f
:100c640002003a000028ef0001003700df0107000e
:100c74000080fa00000006000600fa00e4004700c5
:100c8400800878000000eb00000f78000e80e80078
:100c9400e4004700110878000e80e8001000780096
:100ca4006a00400090007800c0c62100808f500088
:100cb4000f003a000e80e800100078007400400035
:100cc4009000780020c62100808f50000800320078
:100cd4000e80e800100078007400400010007800d6
:100ce4000000e00002003a0010002000000f78002d
:100cf4001e0078000080fa00000006000400fa00dc
:100d04008e80e800800878000e80e800100f7800dc
:100d1400004080009e007800808f50002a0032003e
:100d24001e0078000000e000270032001a0f0700c0
:100d34001e007800d0ff07000000e0002100320010
:100d44001e80e8002a0e07001e007800760040008e
:100d54009000780050408000808f500004003600de
:100d64001e00780076004000100078005040880093
:100d74001e81e8001e007800760040001000780014
:100d84006a00b9008000780060c221000080400041
:100d940082007800a40d07001e0078007600400051
:100da4009000780000408000760040001000780039
:100db400808f500003003900b026020000000000bc
:100dc40000000000010f07000080fa000000060088
:100dd4000800fa00e6004700800878000000eb00f5
:100de400000f78000e80e800e60047001108780044
:100df4008000eb0064004700010878000e80e800e2
:100e0400100078009cff07000000e0003200320070
:100e1400d04080000000e00029003a000e80e80085
:100e240010007800760040009000780000408000b8
:100e34007600400010007800808f500002003900d6
:100e440010002000000f78000e80e80010007800e9
:100e54000080e800e60d07000e80e800100078002e
:100e6400760040009000780050408000808f500051
:100e7400050036000e80e80010007800760040007f
:100e840010007800504088000e80e80010007800c0
:100e94000081e8000e80e800100078007600400031
:100ea400100078006a00b9008000780060c2210058
:100eb40000804000820078005b0d070006003700c8
:100ec4000e80e800100078006c004000800078007c
:100ed40020c62100540d07001e0078000080fa008f
:100ee400000006000200fa00858120000002eb00e9
:100ef4008001eb003207200041352800a0c9200002
:100f0400ebfd0700000f78001e007800e10f500091
:100f14000d003a0011028000f0f12f000080600003
:100f24000050a00010028800000000000000000033
:100f34000080eb00b0408800100020006040880072
:100f44000828ef00660e07000080fa000000060083
:100f54000000fa0011028000f0f12f000080600010
:100f64000050a000100288000000000000000000f3
:100f74000c28ef00710e07000080fa000000060044
:100f84000000fa00d04080000000e800d040880053
:100f94000080fa00000006000600fa000000eb00e2
:100fa400000f78008000eb000e80e8000108780054
:100fb400790e0700d04080000000e900d04088008e
:100fc400d04080000000e00051003a003040800032
:100fd4000000e0004e0032002700370040e38000ac
:100fe4006600400010007800000f78009e00780032
:100ff4006c8040007e0d07001e80e8007c0d070019
:101004001e00780076004000900078005040800078
:10101400808f5000040036001e00780076004000e7
:1010240010007800504088001e81e8001e007800ff
:1010340076004000100078006a00b9008000780053
:1010440060c221000080400082007800f60c070096
:101054001e00780076004000900078000040800078
:101064007600400010007800808f500002003900a4
:10107400100020008040880010e380000000e000a1
:10108400d6ff3a001e0078000000e00001003200a4
:101094004a0207006400470071408000010878009c
:1010a40064004700100078000000e0000f003200e8
:1010b400420007000000e00002003200100020009f
:1010c4008040880064004700100078008000e90038
:1010d40064004700010878006400470010007800ad
:1010e4000000e000f2ff3a000e28ef00804080008c
:1010f4000000e00006003200110020000e80e8002d
:1011040001087800b0260200000000000000000082
:101114002e0e07000e80e800100078000080fa0010
:10112400000006000200fa001b0e07004140800088
:10113400010f7800250e07001e0078000080fa00d9
:10114400000006000400fa000000eb00000f780025
:101154000e80e80041408000010878000e80e8001d
:10116400100078000080fa00000006000000fa0079
:10117400304080000080fa00000006000400fa00fd
:101184008e80e800800878000e80e8001000780067
:101194000000e00002003a00004080000200370036
:1011a4000e80e80010007800000f78009e007800a0
:1011b4007a8040000080fa00000006000a00fa006d
:1011c4000000eb00000f7800d04080000000e00039
:1011d4007b003a00404080008000e8000e80e80078
:1011e400010878000e80e8009000780041408800f3
:1011f4000e80e800100078000000e0000c003a00c7
:1012040064004700114080000108780020408000fd
:101214001040880064004700900078002140880056
:10122400904080000000e80090408800e30107003f
:10123400b14080000e80e80010007800810f50005b
:101244005200390001003700000000001040800007
:10125400100078000000e00003003a000080eb007a
:10126400b04088004900370010408000660040000c
:101274001000780066004000900078006600470087
:101284000108780066004700900078006800470075
:101294008180e800110878000e80e8009000780052
:1012a4006800470010007800808f5000040031006f
:1012b4006800470090007800b14088003300370090
:1012c40066004700100078000080e800c80c0700a2
:1012d4006600470010007800740040001000780099
:1012e4000000e000040032006600470010007800af
:1012f4006c004000be0c0700660047001000780038
:10130400760040009000780050408000808f5000ac
:1013140005003600660047001000780076004000a3
:1013240010007800504088006600470010007800e4
:101334000081e80066004700100078007600400055
:10134400100078006a00b9008000780060c22100b3
:101354000080400082007800330c070066004700dc
:101364001000780076004000900078000040800073
:101374007600400010007800808f5000b2ff3900e2
:1013840010002000000f7800b0ff370000408000fc
:1013940076004000100078006a00b90080007800f0
:1013a40060c221000080400010007800e10f50006e
:1013b4000600360010002000000f780003003700fc
:1013c400704080000000e800704088008040800089
:1013d4000000e0000200320010002000000f78003e
:1013e4001e0078000080fa00000006000400fa00e5
:1013f400d04080000000e000030032001000200014
:10140400804088003a0037001028ef0051408000e7
:10141400010f7800010037001e0fe9001e0078005c
:101424006a00b9008000780060c22100008040009a
:10143400100078000000e000f7ff32001e00780082
:101444006a00b9008000780060c2210080804000fa
:101454000e80e800010878000e80e8001000780093
:101464000080e800100078000080e8009000780018
:101474000e80e800100078000080e8000108780081
:101484000e80e800100078000080e80090007800ea
:101494000e80e8001000780064004000808f500047
:1014a4000a003a000e80e800100078000080e8008e
:1014b400100078000080e800900078000e80e800ba
:1014c400100078000080e800010878000e80e80031
:1014d400100078000080e8001000780066004000ea
:1014e40010007800004088009e0078005140880079
:1014f4000080fa00000006000400fa00000f7800e3
:101504000e80e80001087800004080006c00400074
:10151400800078001e007800ef0b07001100200007
:101524000e80e80010007800980307000080fa009d
:10153400000006000600fa00000f78000e80e800a4
:101544000108780064004700020878000240800027
:101554000e80e800100078008000780001f0a00000
:101564006c00410001087800004080006c004000dd
:10157400800078001e007800ab0b070011002000eb
:101584006400470010007800800307000080fa0020
:10159400000006000600fa00e40047008008780016
:1015a40064004700100078006600400010007800d6
:1015b40066004000900078000e80e8000108780082
:1015c4000e80e800100078006c004000080c070052
:1015d400d04080000000e0001e003a000e80e800c9
:1015e400100078000080e800010c07000e80e8007d
:1015f4001000780076004000900078005040800091
:10160400808f5000050036000e80e800100078003e
:101614007600400010007800504088000e80e800fa
:10162400100078000081e8000e80e80010007800c7
:1016340076004000100078006a00b900800078004d
:1016440060c221000080400082007800760b070011
:10165400060037000e80e800100078006c0040009f
:101664008000780020c621006f0b07000e80e80080
:101674001000780076004000900078000040800060
:101684007600400010007800808f5000050036007e
:1016940010002000000f7800100020008040880017
:1016a400020037000000eb00000f78001e007800f5
:1016b4000080fa00000006000600fa000e81e8002f
:1016c40000097800640047000108780064004700be
:1016d400100078008000780001f0a0000e80e8007f
:1016e40010007800010878000e80e80010007800ef
:1016f4006600400010007800000f78000e80e800bb
:1017040010007800ba0b07001e80e800b80b070031
:101714001e00780076004000900078005040800061
:10172400808f5000040036001e00780076004000d0
:1017340010007800504088001e81e8001e007800e8
:1017440076004000100078006a00b900800078003c
:1017540060c221000080400082007800320b070044
:101764001e00780076004000900078000040800061
:101774007600400010007800808f50000200360090
:1017840010002000804088000080fa00000006005d
:101794000200fa00000f78007f0c070091408000df
:1017a4001e00780001087800414080001e00780087
:1017b4000080e80001087800840c07000080fa002b
:1017c400000006000200fa00000f7800914080003b
:1017d4001e00780001087800414080001e00780057
:1017e4000080e800010878000080fa00000006008c
:1017f4000a00fa0066014700000978006800470003
:1018040001087800640c07000e80e8004140800065
:101814000108780066004700100078000080e800a6
:10182400900078000e80e8001000780081005000dd
:101834006400470001087800680047001000780041
:1018440010007800e10f400003003a000000eb00b4
:10185400000f78002d003700660047001000780064
:101864009000780090408000808f50000b00320080
:1018740066004700100078000080e80090007800bf
:101884000e80e80010007800808f500003003e00b6
:1018940010002000000f78001c003700680047008b
:1018a4001000780090007800640047001000780071
:1018b400808f50000f003600680047001000780049
:1018c4009000780064004700100078008080500089
:1018d400680047001000780001087800660047009f
:1018e40010007800b7ff07000000eb00000f78003d
:1018f4000600370068004700100078008000eb0005
:101904000108780010002000000f78002f0c070059
:101914001e0078000080fa00000006000000fa00b3
:1019240010002000804088000080fa0000000600bb
:101934000200fa00000f78001d000700feff3700c8
:101944000200fa000000eb00000f780007003700e7
:101954001e0078006a00b9008000780060c221008f
:10196400008040008b0a07001e0fe8001e0078006c
:10197400e30f5000f6ff3600e0c42100850a07009b
:1019840080c52100830a070020c62100810a0700c0
:10199400c0c621007f0a0700e0c42100104088006f
:1019a40080c52100204088000080fa000000060065
:1019b4000000fa000080fa00000006000200fa00ad
:1019c40010408000100078000000e00003003a009e
:1019d4000080eb00b04088000a003700104080000f
:1019e4006600400010007800660040001000780097
:1019f400000f78001e0078000080e80010007800d6
:101a0400b04088000080fa00000006000200fa00de
:101a1400004080006c004000100f780002408000fd
:101a2400004080007600400010007800e4001000c0
:101a34006c004100010878001e0078000080fa0064
:101a4400000006000800fa0064014700000978005d
:101a54006600470001087800cf0b070000408000b3
:101a64000002b0001000be00e00f5000e08f5800ec
:101a74000f003a000040800011c0b3004002b000e3
:101a84000148780066004700100078000000e0007c
:101a940007003200110020006600470010007800a3
:101aa4003a020700b0260200000000000000000017
:101ab400c60b0700b80b0700004080000002b0000e
:101ac400301f7800201778001e00be00e00f500081
:101ad400e08f5800100032006400470010007800c6
:101ae4000000e00005003200024080006000b80001
:101af4000202b0000089be000700370002408000e7
:101b04000082eb008082eb003e004200ae804a007f
:101b14000202b0000089be00004080008040eb005b
:101b24004002b00001487800a80b07001e00be0068
:101b34000080fa00000006000e00fa00889fbe0034
:101b44008a9fbe000e83e800008bbe00660047003b
:101b54000288be006a004700040878006c00470051
:101b6400050878008c0b0700004080004002b0009c
:101b740010407800e24f50002300320004408000ff
:101b840000022000040040001001be000e80e800a6
:101b94001000be000080ea008180ea008202780022
:101ba40003017800800178008100780003806200de
:101bb4008100610081057800000578000a00be00fc
:101bc40002022000040141000089be0000408000a0
:101bd40011c0b3004002b000014878006c00470017
:101be400100078000000e00007003200110020001f
:101bf4006c00470010007800e4010700b0260200e2
:101c04000000000000000000700b0700620b0700da
:101c14006a004700100078000000e000060032006f
:101c2400004080000002b0001000be006a014700be
:101c3400120178000089be00004080004002b0001c
:101c440010407800e24f5000030032000000eb0027
:101c5400000f7800160037000440800000022000c6
:101c6400040040001001be00660047001000be00e2
:101c74000080ea008180ea00820278000301780093
:101c84008001780081007800038062008100610097
:101c940081047800000478000800be0002022000dd
:101ca400040141000089be0010002000000f7800ec
:101cb400004080008040eb004002b0000148780002
:101cc400420b07001e0078004f05be004f04be0003
:101cd4000080fa00000006001000fa00e602470047
:101ce400800a7800680047000288be006c00470044
:101cf400010878006e0047000408780010002000f6
:101d0400000f78000e80e800e60047001108780014
:101d1400210b07006e004700100078000000e0006f
:101d2400070032000e80e800100078000002b000c6
:101d34001000be006e014700120178000089be0049
:101d44000e80e80090007800640047004102b00073
:101d5400114878000e80e8001000780021c0b3001c
:101d64004002b000014878006c0047001000780081
:101d7400e20f500019003200e20f500005003e004f
:101d84000000e00035003200e10f50000600320090
:101d940033003700e30f50001b003200e40f500003
:101da400200032002e0037000e80e800100078007a
:101db4000002b0001001be00680047001000be0021
:101dc40000007100818071000e81e800120178002a
:101dd4000202b0000089be00210037000e80e80036
:101de400100078000002b0001000be006100400046
:101df400e08048000e81e800120178000202b00081
:101e04000089be00160037000e80e800100078003c
:101e14000002b000e8004700311878002110780073
:101e24000f0037006400470010407800e24f500074
:101e3400070032000e80e800100078000002b000b5
:101e4400e8004700311878002110780004003700ba
:101e54000000eb00000f78000100370000000000d4
:101e64006400470010407800e14f500029003a0018
:101e74000e80e800100078000080e800dc0907000c
:101e84000e80e80010007800760040009000780092
:101e940050408000808f5000050036000e80e8001e
:101ea4001000780076004000100078005040880050
:101eb4000e80e800100078000081e8000e80e80041
:101ec4001000780076004000100078006a00b90025
:101ed4008000780060c22100008040008200780009
:101ee400510907000e80e8001000780076004000d9
:101ef40090007800004080007600400010007800d8
:101f0400808f500003003600b0260200000000005d
:101f140000000000ad0a07001e0078000080fa00ef
:101f2400000006001400fa0068034700000b780064
:101f34006a0047000288be006e004700010878006e
:101f44007000470004087800720047000508780014
:101f540010002000000f78000e80e800e800470021
:101f6400110878008000eb00640047000108780045
:101f740070004700100078000000e0000700320005
:101f84000e80e800100078000002b0001000be00cf
:101f940070014700120178000089be000e80e8003d
:101fa40090007800660047004102b00011487800b4
:101fb4000e80e8001000780021c0b3004002b00099
:101fc400014878006e00470010007800e20f5000ce
:101fd40019003200e20f500005003e000000e0004e
:101fe40035003200e10f50000600320033003700a4
:101ff400e30f50001b003200e40f500020003200b9
:102004002e0037000e80e800100078000002b000b7
:102014001001be006a0047001000be0000007100fd
:10202400818071000e81e800120178000202b00084
:102034000089be00210037000e80e80010007800ff
:102044000002b0001000be0061004000e0804800c3
:102054000e81e800120178000202b0000089be007f
:10206400160037000e80e800100078000002b0006f
:10207400ea00470031187800211078000f0037007b
:102084006600470010407800e24f5000070032001d
:102094000e80e800100078000002b000ea0047005b
:1020a4003118780021107800040037000000eb009c
:1020b400000f7800010037000000000066004700b0
:1020c40010407800e14f50003a003a00d0408000c0
:1020d4000000e0001e003a000e80e80010007800c6
:1020e4000080e800420907000e80e8001000780034
:1020f400760040009000780050408000808f5000af
:10210400050036000e80e8001000780076004000dc
:1021140010007800504088000e80e800100078001d
:102124000081e8000e80e80010007800760040008e
:10213400100078006a00b9008000780060c22100b5
:102144000080400082007800b708070006003700ce
:102154000e80e800100078006c00400080007800d9
:1021640020c62100b00807000e80e80010007800a7
:102174007600400090007800004080007600400027
:1021840010007800808f50000a003600720047006b
:10219400100078000000e0000400320072004700e4
:1021a40010007800110020000108780010002000c1
:1021b400804088001e0078000080fa0000000600bd
:1021c4000a00fa0066014700000978006800470029
:1021d4000108780066004700100f78008000eb00cb
:1021e4000e80e800010878009e0078006400470033
:1021f4004102b000114878001e00780021c0b300ed
:102204004002b000014878001e0078000002b000cf
:102214001000be0061004000e08048001e0178000c
:102224000202b0000089be0064004700104078003c
:10223400e14f500031003a00d04080000000e0003f
:1022440017003a001e80e800e90807001e00780025
:10225400760040009000780050408000808f50004d
:10226400040036001e00780076004000100078005c
:10227400504088001e81e8001e007800760040006f
:10228400100078006a00b9008000780060c2210064
:1022940000804000820078006308070005003700d2
:1022a4009e0078006c8040008000780020c62100e9
:1022b4005d0807001e00780076004000900078005a
:1022c400004080007600400010007800808f5000ad
:1022d4000a00360068004700100078000000e000a3
:1022e400040032006800470010007800110020004c
:1022f4000108780010002000804088000080fa0067
:10230400000006000600fa00e40047008008780098
:1023140064004700100078000000e00002003a006a
:10232400004080000200370064004700100078007d
:102334008e80e80080087800970907000e80e80086
:10234400100078004002b00010407800e24f5000c6
:1023540008003a000e80e800100078008040eb008e
:102364004002b0000148780010002000000f7800ff
:10237400020037000000eb00000f7800930907000b
:102384001e0078000080fa00000006000800fa0031
:1023940064014700000978006600470001087800de
:1023a40041408000010f7800004080000080e80078
:1023b4008f0807006400470010007800e10f400018
:1023c4000a003a0066004700100078000000e000b0
:1023d40006003200004080000080e80080007800a1
:1023e400c0c621001008070022003700640047001f
:1023f400100078009e0040000e80e800010878007c
:10240400004080000080e8008e80e8001108780019
:102414000e80e800100078009e0f50000700310085
:10242400004080000080e8002240800080007800a6
:1024340002007800280807000e00370000408000e2
:102444000080e800124080008000780002007800dc
:1024540021080700b14080000e80e80010007800d9
:10246400810f5000030031000e80e80090007800d6
:10247400b14088000080fa00000006000600fa005f
:102484000e81e80000097800640047000108780024
:102494000e80e800100f78003f0907001e00780046
:1024a400100178001e0078007e0040009000780043
:1024b4001e0078000002b000100078000088b90007
:1024c40000007800800041001e0078006400400095
:1024d400010878001e0078008000eb007c004000ba
:1024e400010878001e007800900078001e00780033
:1024f4000080e800010878001e00780010017800d0
:102504001e0078007e004000100078000000e90002
:102514009e0078000102b000910078000180b900ab
:1025240000007800800041001e0078006600400032
:10253400010878001e00780080c0eb002002b00083
:10254400014878001e00780080c0eb003002b00023
:102554000148780064004700100078000000e000a3
:102564000e003a001e007800680040001000780059
:102574000000e0000f0032009e00780068804000f8
:1025840004fc07000000e0000a003200b02602004c
:102594000000000000000000060037009e007800e4
:1025a400688040007b0707009e007800728040002e
:1025b4007807070005090700100020000080fa00d2
:1025c400000006000c00fa00e601470080097800cc
:1025d40068004700010878006a0047000248780054
:1025e40068004700100078000000e00003003a0093
:1025f4000000eb00000f780007003700660047007a
:102604009000780068004700100078000088b90046
:1026140000007800000f7800410220001e80400076
:102624005c090700800078000e80e800010878004b
:102634000e80e800100078000000e0001400320072
:10264400640047008e80e8001108780064004700a9
:1026540010007800410220008080400064004700a0
:10266400010878000e80e800100278006a00470034
:10267400904178006400470010017800680047002a
:1026840090007800660047001000780004000700fe
:102694000e80e800100078000080fa0000000600b8
:1026a4000a00fa00000f78000e80e80001087800a4
:1026b4006400470002087800660047000348780079
:1026c40068004700040878000e80e80010007800d5
:1026d4000000e00006003a0068004700900078001f
:1026e40068004700100078000108780005003700f2
:1026f40064004700900078006800470010007800ec
:102704000108780068004700100078007e0040004f
:102714001e08780068004700100078000002b0002e
:102724008e80e8001108780011002000680047003e
:102734001000780051ff07000080fa000000060036
:102744000600fa000e81e8000009780064004700e2
:102754000108780022c0b3008000eb000e80e8007e
:102764001000780097ff0700000f78001e00780023
:102774000000e000040032001e0078007c004000ed
:10278400e4004700110878001e0078000080fa0079
:10279400000006001200fa006a024700000a7800ee
:1027a4006c004700010878006e00470002087800ba
:1027b40070004700030878000000eb00000f780069
:1027c4000e80e800ea004700110878000100370095
:1027d40000000000700807000e80e8001000780078
:1027e4007c004000900078000e80e8001000780023
:1027f4007e00400010007800808f500004003900f3
:102804007000470010007800e20f500024003a00e6
:1028140070004700100178006c00470090007800b9
:102824000e80e8001000780055030700800078004f
:1028340064004700010878000e80e800100078006a
:1028440072004000100078000000e0000a0032002e
:102854000e80e80010007800720040004dfb070075
:102864000000e0000b003200b0260200000000006f
:1028740000000000070037006400470010007800e3
:102884000000e00003003200b02602000000000057
:10289400000000004d080700100020004c00370025
:1028a4006e004700100078000000e00003003a00ca
:1028b400460807000000eb00450037001e007800c2
:1028c4000000e00004003a0066004700bdfb07007a
:1028d40010002000000f78003c080700a8f907004a
:1028e4002d0807000e80e800100078002002b000d8
:1028f40010407800e14f400005003a000e80e800e7
:10290400100078008040eb002002b00001487800fd
:102914000e80e800100078003002b000104078000b
:10292400e14f400005003a000e80e80010007800f6
:102934008040eb003002b000014878002308070013
:10294400ee00470066004700a9fb07000000e00016
:102954001a003a000e80e800100078002a040700ec
:102964000000e000100032006e0047009000780084
:102974000e80e8001000780068004000defa0700ce
:102984000e80e80010007800af03070082f907000a
:102994000000e0008eff3a00b026020000000000b4
:1029a400000000008bff37000e80e8001000780064
:1029b400a503070078f9070086ff37000e80e800ba
:1029c40010007800a003070073f907000000eb0073
:1029d4000080fa00000006001000fa0068024700b8
:1029e400000a78006a004700010878006c0047007c
:1029f400020878006e004700030878000e80e800a3
:102a0400e8004700110878008000eb0064004700ec
:102a1400010878000e80e800100078007c00400077
:102a2400900078000e80e800100078007e004000de
:102a340010007800808f5000040039006e004700b9
:102a440010007800e20f500030003a000e80e800d9
:102a540090007800660047003102b0001148780009
:102a64006e004700100178006a004700900078006b
:102a74000e80e80010007800c102070066004700dd
:102a840010407800e14f400015003a000e80e80045
:102a94001000780072004000100078000000e00090
:102aa400170032000e80e800100078007200400029
:102ab400b8fa07000000e000110032006c00470083
:102ac400100078000000e0000d0032006c004700a8
:102ad4001000780011002000010878000800370079
:102ae40066004700104078000040e800804078000d
:102af4000e80e800100078003002b0000148780031
:102b040010002000000f7800020037000000eb00e6
:102b1400000f78001e0078000080fa000000060014
:102b24000e00fa006a014700000978006c004700b3
:102b3400010878000e80e800ea00470011087800d8
:102b44008000eb0064004700010878000e80e80074
:102b54009000780066004700fc804000110878006f
:102b64000e80e800100078007e004000900078009d
:102b74006600470010007800808f50003000360057
:102b84000e80e80090007800680047003102b00031
:102b94001148780066004700100078008000e800c3
:102ba4000e80e800100078007c00400001087800e6
:102bb4006800470010407800e14f400015003a00db
:102bc4000e80e800100078007200400010007800c9
:102bd4000000e000170032000e80e80010007800ca
:102be400720040006bfa07000000e00011003200a0
:102bf4006c004700100078000000e0000d00320077
:102c04006c004700100078001100200001087800d3
:102c14000800370068004700104078000040e800d2
:102c2400804078000e80e800100078003002b00088
:102c34000148780010002000000f780002003700df
:102c44000000eb00000f78001e0078000080fa00fe
:102c5400000006001000fa00ea014700800978002d
:102c64006c004700010878006e00470002087800f5
:102c74000000eb00000f78000e80e800ea00470037
:102c8400110878000300370000000000010037003d
:102c940000000000400707000e80e8009000780064
:102ca40064004700fc80400011087800640047007d
:102cb400100078000000e0001e0032006c004700a5
:102cc400900078000e80e80010007800b102070040
:102cd40064004700100078008000e9000e80e800de
:102ce400100078007c004000010878000e80e800a5
:102cf4001000780068004000100078000000e00038
:102d0400090032000e80e8001000780068004000de
:102d140020fa07000000e00003003200b0260200a1
:102d24000000000000000000280707001000200039
:102d3400510037006e004700100078000000e000ea
:102d440003003a00210707000000eb004a003700a7
:102d54001e0078000000e00004003a00660047000e
:102d640098fa070010002000000f780017070700ea
:102d740083f80700080707000e80e80010007800b9
:102d84002002b00010407800e14f400005003a00f6
:102d94000e80e800100078008040eb002002b000b4
:102da400014878000e80e800100078003002b0007e
:102db40010407800e14f400005003a000e80e80022
:102dc400100078008040eb003002b0000148780029
:102dd400fe060700ee0047006600470084fa07007d
:102de4000000e0001a003a000e80e80010007800ad
:102df400de0207000000e000100032006e00470011
:102e0400900078000e80e800100078007200400006
:102e1400b9f907000e80e800100078008a02070064
:102e24005df807000000e00097ff3a00b0260200ba
:102e3400000000000000000096ff37000e80e8004c
:102e4400100078008002070053f8070091ff370054
:102e54000e80e800100078007b0207004ef807009f
:102e64000e80e80010007800c00207000000e000b7
:102e740087ff32000000eb000080fa00000006002b
:102e84000e00fa006a014700000978006c00470050
:102e9400010878000000eb00000f78000e80e800c5
:102ea400ea00470011087800030037000000000022
:102eb4000100370000000000b70607000e80e8009c
:102ec4009000780064004700fc80400011087800fe
:102ed40064004700100078000000e0001900320090
:102ee40064004700100078008000e9000e80e800cc
:102ef400100078007c004000010878000e80e80093
:102f04001000780068004000100078000000e00025
:102f1400090032000e80e8001000780068004000cc
:102f24009cf907000000e00003003200b026020014
:102f34000000000000000000a406070010002000ac
:102f4400510037006c004700100078000000e000da
:102f540003003a009d0607000000eb004a0037001a
:102f64001e0078000000e00004003a0066004700fc
:102f740014fa070010002000000f780093060700e1
:102f8400fff70700840607000e80e80010007800b1
:102f94002002b00010407800e14f400005003a00e4
:102fa4000e80e800100078008040eb002002b000a2
:102fb400014878000e80e800100078003002b0006c
:102fc40010407800e14f400005003a000e80e80010
:102fd400100078008040eb003002b0000148780017
:102fe4007a060700ec0047006600470000fa070075
:102ff4000000e0001a003a000e80e800100078009b
:103004005a0207000000e000100032006c00470084
:10301400900078000e80e8001000780072004000f4
:1030240035f907000e80e80010007800060207005a
:10303400d9f707000000e0009cff3a00b026020028
:1030440000000000000000009bff37000e80e80035
:1030540010007800fc010700cff7070096ff370047
:103064000e80e80010007800f7010700caf7070097
:103074000e80e800100078003c0207000000e00029
:103084008cff32000000eb000080fa000000060014
:103094001200fa00ec014700800978006e00470036
:1030a4000108780070004700020878000000eb0077
:1030b400000f78000e80e800ec004700110878004b
:1030c400030037000000000001003700000000008a
:1030d400310607000e80e800900078006400470085
:1030e400fc8040001108780064004700100078005c
:1030f4000000e000210032000e80e800900078001b
:1031040066004700e6804000110878006e00470022
:10311400900078000e80e800100078009d01070000
:103124000e80e8001000780066004000e6004700ca
:10313400110878000e80e80010007800720040004a
:10314400100078000000e000090032000e80e80062
:1031540010007800720040000ef907000000e00043
:1031640003003200b026020000000000000000004e
:1031740016060700100020005100370070004700b9
:10318400100078000000e00003003a000f0607007a
:103194000000eb004a0037001e0078000000e00049
:1031a40004003a006800470086f907001000200078
:1031b400000f78000506070071f70700f605070001
:1031c4000e80e800100078002002b0001040780063
:1031d400e14f400005003a000e80e800100078003e
:1031e4008040eb002002b000014878000e80e80027
:1031f400100078003002b00010407800e14f400029
:1032040005003a000e80e800100078008040eb00d2
:103214003002b00001487800ec050700f0004700d8
:103224006800470072f907000000e0001a003a0045
:103234000e80e80010007800cc0107000000e000d8
:103244001000320070004700900078000e80e80003
:103254001000780072004000a7f807000e80e80014
:1032640010007800780107004bf707000000e00029
:1032740094ff3a00b02602000000000000000000a5
:1032840093ff37000e80e800100078006e010700fd
:1032940041f707008eff37000e80e8001000780029
:1032a400690107003cf707000e80e8001000780071
:1032b400ae0107000000e00084ff32000000eb00d4
:1032c4000080fa00000006001000fa00ea0147003e
:1032d400800978006c004700010878006e00470000
:1032e400020878000e80e800ea0047001108780020
:1032f4008000eb0064004700010878000e80e800bd
:103304009000780066004700fc80400011087800b7
:1033140066004700100078000000e000350032002d
:103324000e80e80090007800680047002102b00099
:10333400114878006c004700900078000e80e80087
:1033440010007800130107006600470010007800a1
:103354008000e9000e80e800100078007c00400046
:10336400010878006800470010407800e14f4000f1
:1033740015003a000e80e800100078006800400054
:10338400100078000000e000170032000e80e80012
:1033940010007800680040007ef807000000e0009c
:1033a400110032006e004700100078000000e000b9
:1033b4000d0032006e00470010007800110020005c
:1033c40001087800080037006800470010407800c2
:1033d4000040e800804078000e80e800100078008b
:1033e4002002b0000148780010002000000f78008f
:1033f400020037000000eb00000f78001e00780088
:103404000080fa00000006000c00fa006801470082
:10341400000978006a004700010878000e80e8007f
:10342400e8004700110878008000eb0064004700c2
:10343400010878000e80e800100078007c0040004d
:10344400100078000000e000120032000e80e80056
:103454009000780066004700e6804000110878007c
:103464006a004700900078000e80e80010007800a1
:10347400c80007000e80e8001000780066004000d5
:10348400e60047001108780010002000000f7800c3
:10349400020037000000eb00000f78001e007800e7
:1034a4000080fa00000006000400fa008e80e800a4
:1034b40080087800380507000e80e80010007800c6
:1034c4007c004000100f7800400507001e007800c3
:1034d4000080fa00000006000600fa00e40047003d
:1034e4008008780064004700100f78002a05070060
:1034f4001e0078007e004000900078001e007800d6
:103504007c00400010007800808050000e80e800ad
:10351400010878002d0507000e80e80010007800ef
:103524000080fa00000006000600fa00e4004700ec
:103534008008780064004700100f78009e0078002f
:103544000e80e800fc804000110878000e80e8003e
:10355400100078000080fa00000006000400fa0061
:103564008e80e800800878000e80e800100f780054
:103574001e007800b30507000080fa000000060072
:103584000a00fa00e4014700800978006600470059
:103594000108780068004700020878008000eb000a
:1035a4000e80e800010878006400470010007800ed
:1035b4007c004000100f7800640047001000780081
:1035c4000002b000100078000000e0006800320043
:1035d40068004700100078000000e0002b003a006b
:1035e40064004700100078000002b00090007800ea
:1035f40064004700100078000080e80010007800a4
:1036040001017800e60047009100780004f4070007
:1036140064004700100078000080e8009000780003
:1036240064004700100078000002b0001000780029
:103634008080400064004700100078000080e800ab
:103644000108780064004700100078000080e8005a
:103654009000780064004700100078006400400087
:1036640010007800808f500041003900640047004a
:103674001000780090007800640047001000780083
:103684000080e80001087800390037006400470032
:10369400100078000002b000900078006400470039
:1036a40010007800660040001000780001017800e6
:1036b400e600470091007800d9f307006400470052
:1036c4001000780066004000900078006400470015
:1036d400100078000002b000100078000000ea003a
:1036e40080804000640047001000780066004000bd
:1036f400010878006400470010007800660040006c
:1037040090007800640047001000780010007800f2
:10371400808f50000e0031006400470010007800d4
:1037240064004000900078006400470010007800b6
:103734000002b000100078000000ea008080400021
:10374400640047001000780066004000010878001b
:103754006800470010007800e20f500004003a00af
:103764001e0078000000e000010032001e0fe90096
:103774009e00e80064004700100078007c004000d0
:10378400010878000e80e800100078000080fa003c
:10379400000006000400fa00000f78000e80e80024
:1037a400010878001e0078000002b00010007800c4
:1037b4000000e000220032001e0078006600400095
:1037c400900078001e0078000002b000100078001d
:1037d400808040001e0078006600400001087800e8
:1037e4001e00780066004000900078001e007800fb
:1037f4006400400010007800808f500005003900fc
:103804001e007800900078001e00780066004000da
:10381400010878001e0078000002b00090007800d3
:103824001e00780066004000100078000101780056
:10383400800078000e80e8001000780078f307001c
:103844000080fa00000006000400fa008e80e80000
:1038540080087800500407000e80e800100078000b
:103864003002b000104f78000e0037000e80e800e0
:103874001000780072004000100078000000e000a2
:103884000c0032000e80e800100078007200400046
:1038940040f707000000e000010032001ff80700b5
:1038a4001e4fe9001e4078000004e000efff3c00da
:1038b40001003700000000000e80e80010007800ce
:1038c40080c0eb003002b000014878003f040700dc
:1038d400310407000e80e800900078000e00e80034
:1038e4002102b00011487800120037000e80e80071
:1038f4001000780068004000100078000000e0002c
:10390400110032000e80e8001000780068004000ca
:1039140020f707000000e00001003200fff7070075
:103924000e00e800104078008040e9000e00e80036
:10393400014878000e00e800104078000004e00020
:10394400eaff3c0001003700000000000e80e800a0
:103954001000780080c0eb002002b000014878001d
:103964001a0407000080fa00000006000400fa00b0
:103974008e80e80080087800070407000e80e800c5
:10398400100078007c004000100078000000e00087
:1039940003003a0010002000000f780002003700f6
:1039a4000000eb00000f7800080407001e007800f8
:1039b4000080fa00000006000600fa00e400470058
:1039c400800878000e80e800e400470011087800c1
:1039d4000e80e800100078007c00400010007800a1
:1039e4000000e00003003a0010002000000f7800ff
:1039f400020037000000eb00000f78001e00780082
:103a04000080fa00000006000400fa008e80e8003e
:103a140080087800e00307000e80e80010007800ba
:103a24007c004000900078000e80e80010007800d0
:103a34007e00400010007800808f500003003a00a0
:103a440010002000000f7800020037000000eb0097
:103a5400000f7800dd0307001e0078000080fa00e4
:103a6400000006000600fa00e40047008008780021
:103a74000e80e800e4004700110878000e80e8009a
:103a8400100078007c004000900078000e80e80070
:103a9400100078007e00400010007800808f5000f5
:103aa40003003a0010002000000f780002003700e5
:103ab4000000eb00000f78001e0078000080fa0080
:103ac400000006000200fa00c000200031040700d4
:103ad400000f78001e0078000000e00005003200ae
:103ae4001e0078008000eb00010878001e80e800ca
:103af400280207001e0078000080fa00000006007b
:103b04001200fa006a024700000a78006c004700bd
:103b1400010878006e004700020878007000470032
:103b2400030878000e80e800ea00470011087800d6
:103b34008000eb00640047000108780010f50700de
:103b44000e80e800900078006600470011087800b5
:103b54006c004700900078006a004700100078006d
:103b64002e01070066004700900078006c004700b3
:103b74001000780001007000ee004700910078000a
:103b840001006000ee00470091007800810f5000b2
:103b940013003a0066004700900078006c0047006c
:103ba40010007800008f70000e80e800100078008c
:103bb400900078006e004700100078000080ea0052
:103bc400808060000e80e800100078000108780012
:103bd4008000eb00700047000108780017003700f0
:103be40070004700100078000000e0000d00320073
:103bf4006e004700900078000050200081007000a3
:103c04000e80e800100078000080e8007001470092
:103c14001201780047f607000000eb00000f78005f
:103c2400060037000e80e80010007800100f7800be
:103c3400110020006400470001087800d6f4070052
:103c44008000780068004700010878007000470091
:103c5400100078000000e0002800320068004700ef
:103c6400100078000000e00003003a00b0260200d3
:103c7400000000000000000064f70700000f780057
:103c8400002020001e0060000000e00019003a003f
:103c9400410307000e80e80010007800100f780040
:103ca4006e004700100078001e006000ee00470020
:103cb40091007800810f50000a003a000e80e8005d
:103cc40010007800900078006e0047001000780023
:103cd4000080ea00808060000e80e8001000780018
:103ce4000108780039030700110020006400470030
:103cf40001087800f00f20001e0f60001e007800fd
:103d04000080fa00000006001800fa00ee024700e6
:103d1400800a7800700047000108780072004700ac
:103d24000208780074004700030878007600470012
:103d34000408780064004700ee004700110878008a
:103d44008000eb000e80e800010878008000eb00a2
:103d5400660047000108780089f407006400470002
:103d6400900078006800470011087800740047004c
:103d74001001780070004700900078006800470048
:103d8400100078005e010700800078006a00470098
:103d9400010878006a004700100078000000e00085
:103da4001400320068004700100f78008000eb0018
:103db4007600470001087800720047001000780080
:103dc4000000e00036003200640047001000780074
:103dd4009000780070004700100078000080ea002e
:103de40080806000640047001000780001087800bb
:103df4002b00370076004700100078000000e00038
:103e040006003a0068004700100f780011002000f7
:103e1400660047000108780021003700720047005f
:103e2400100078000000e000060032000e80e80078
:103e340010007800800078000180a0000e80e80067
:103e44000108780074004700100078000000e000ca
:103e5400060032000e80e800100078008000780030
:103e640001a0a0000e80e80001087800700047005f
:103e7400900078000e80e800100078008100700047
:103e840064004700100078000080e80076014700d5
:103e940012017800a7f507000000eb00000f78007e
:103ea4003df40700800078006c00470001087800aa
:103eb40076004700100078000000e0002d0032007a
:103ec4006c004700100078000000e00003003a0096
:103ed400b02602000000000000000000cbf607003e
:103ee400000f7800002020001e0060000000e000a9
:103ef4001e003a00a8020700640047001000780082
:103f0400100f78007400470010017800700047001b
:103f1400900078001e007800f90007000000e0001f
:103f24000e00320072004700100078000000e0002c
:103f34000a00320064004700100078009000780006
:103f440070004700100078000080ea008080600064
:103f54006400470010007800010878001100200078
:103f6400660047000108780098020700f00f20005f
:103f74001e0f60001e0078000080fa00000006009a
:103f84000800fa0064014700000978006600470051
:103f94000108780064004700100f78007e020700d3
:103fa4009e0078000e80e800110878001e0078005a
:103fb4009000780066004700100078000080ea0056
:103fc400808060001e007800010878007f020700ee
:103fd4000e80e800100078000080fa00000006005f
:103fe4000800fa00e60047008008780066004700f1
:103ff400100f78008000eb000e80e80001087800c4
:104004009e007800640047001108780064004700af
:10401400100078000080fa00000006001600fa0084
:104024007201470000097800740047000108780015
:104034008000eb000e80e80001087800660047006d
:10404400f2004700110878008000eb00640047008c
:104054000108780066004700100078008080e800be
:1040640068004700010878006800470010007800e5
:10407400e40040006a00470001087800c0f307002c
:10408400680047001000780066004000100f7800b8
:104094006600470010007800900078007400470024
:1040a400100078008100700066004700100078005e
:1040b400010878004f0037009e0078006c0047002c
:1040c4008180e800110878009e0078006e004700a7
:1040d400110878008000eb006400470001087800b4
:1040e4006e0047009000780000f02f008080600090
:1040f40070004700010878006e00470090007800c7
:10410400f00f2000808060006e00470001087800f6
:10411400700047009000780000402000008060009c
:104124000000e0000c003a00660047001000780030
:10413400900078006e004700100078000080600056
:104144000000e0001100320011002000640047006c
:10415400010878000d003700660047001000780061
:10416400900078006e004700100078000080600026
:10417400ee00470091007800810f500003003a00e0
:104184001100200064004700010878006400470023
:10419400100078000000e0001400320070004700b6
:1041a4009000780000102000008060000000e00013
:1041b400070032000e80e800900078006e0047008f
:1041c40010007800810070000e80e800010878007b
:1041d4006600470010007800100078000090a000ee
:1041e400800078001e00780033f507006c0047005b
:1041f400100f78006a004700100078009e007800d5
:10420400808f5000acff3a00660047001000780031
:10421400900078000e80e800100078000080ea002a
:104224008080600066004700100078000108780074
:1042340059f307006600470010007800100078006a
:104244000080fa00000006000600fa00e4004700bf
:104254008008780064004700100f78009e80e80012
:104264000e80e8000108780045f3070006003700d7
:104274000e80e8001000780066004000100078000e
:10428400012020000cf507000e80e80010007800e3
:10429400100078000000e000f5ff3a001e007800ee
:1042a400680207003cf307000080fa0000000600e3
:1042b4000600fa00000f78000e80e8000288be00b5
:1042c4000e80e800900078001e00780053ff07007d
:1042d4000080fa00000006000600fa00000f7800d3
:1042e4000e80e8000288be000e80e800900078008e
:1042f4001e00780022ff07000080fa00000006007c
:104304000800fa008e81e800800978006400470004
:104314000108780066004700020878000000eb00fe
:10432400000f780066004700100078000000e000ed
:104334000a003a000e80e80090007800640047000c
:1043440010007800008060000000e0000e003200e1
:1043540010002000000f78000b0037000e80e800ea
:10436400900078006400470010007800008060002e
:10437400e400470091007800810f500002003a00e9
:1043840010002000000f78001e0078000080fa0062
:10439400000006000200fa00000f78009e0078007a
:1043a40064804000800078001e0078000080e800ef
:1043b400010878001e0078008080eb006400400053
:1043c400010878009e007800648040008000780036
:1043d4001e00780066004000010878009e00780006
:1043e40064804000800078001e007800680040006f
:1043f400010878001e0078008000eb0001087800b6
:104404000080fa00000006000200fa00000f7800a5
:104414001e0078008000eb0068004000010878006e
:104424000080fa00000006000600fa000e81e80091
:104434000009780064004700010878000e80e80055
:10444400100078000080e800100f78006400470036
:10445400100078000080e8001e0878001e00780034
:104464006400400090007800640047001000780069
:1044740064004000010878001e00780064004000d9
:10448400100078000080e800e4004700110878007c
:104494001e00780064004000e40047001108780022
:1044a4006400470010007800680040008e80e80037
:1044b400110878000e80e8001000780010007800e1
:1044c4008000e8000e80e800100078000108780001
:1044d4000080fa00000006000800fa0064014700aa
:1044e400000978006600470001087800660047006c
:1044f400900078000e80e800110878000e80e80033
:1045040010007800e10f400005003a006400470005
:104514001000780068004000100f78001000370089
:10452400640047001000780064004000000f780029
:10453400030037001e0078000080e800100f7800a8
:104544001e0078000080e8001000780090007800d9
:104554000e80e80010007800808f5000f5ff3600d0
:104564001e0078000080e800900078006600470094
:10457400100078000080e800010878006600470019
:10458400100078000080e80010007800640040000b
:10459400e600470011087800660047001000780024
:1045a400640040001e0878001e0078000080e800c7
:1045b400e600470011087800660047001000780004
:1045c40068004000e40047001108780064004700d8
:1045d40010007800100078008000e80064004700b4
:1045e40010007800010878000080fa00000006003e
:1045f4000400fa008e80e800800878000e80e8004d
:104604001000780068004000100f78000e80e80069
:10461400100078000080e800900078000e80e80028
:1046240010007800640040001001780064804000ad
:10463400020878000e80e800100078006400400052
:10464400900078000e80e800100078000080e800f8
:10465400100178000180e800020878001e0078004c
:104664000080e800900078000e80e80010007800d8
:10467400808f500007003a000e80e8001000780098
:1046840064004000900078001e0078000080e8007c
:10469400010878000e80e800100078008000eb002c
:1046a40068004000010878001e00780010007800bf
:1046b4008000e9001e007800010878001e007800e0
:1046c400100078000080fa00000006002a00fa00ba
:1046d400430220008e81410080097800600220009e
:1046e4000e00400001087800800220000e00400007
:1046f40002087800e4004700023228000f00090095
:10470400b21878000e80e800610220008e8040001c
:1047140011087800400220000e004000900078004c
:104724000e80e80090087800400220000e0040004f
:10473400100078008080e800400220000e00400055
:1047440001087800400220000e00400010007800ac
:104754008000eb0001087800400220000e004000b9
:10476400100078008080e800400220000e00400025
:1047740001087800400220000e004000100078007c
:104784008000eb0001087800400220000e00400089
:10479400100078008080e800400220000e004000f5
:1047a40001087800800220000e004000900078008c
:1047b400400220000e00400010007800010878003c
:1047c400400220000e004000100078008080e800c5
:1047d400400220000e004000010878000000eb00b9
:1047e400000f7800110037001e0078000000400020
:1047f4000000470064004000900078004002200060
:104804000e004000100078000108780040022000eb
:104814000e004000100078008080e8004002200074
:104824000e004000010878001e0fe8001e0078000a
:10483400ef0f5000ecff3600210280004002200000
:104844000e004000100078000108780040022000ab
:104854000e004000100078008080e8004002200034
:104864000e0040000108780034c0bf008080fb00c7
:10487400400220000e00400010007800010878007b
:10488400400220000e004000100078008080e80004
:10489400400220000e004000010878004002200081
:1048a4000e004000100078008000eb000108780042
:1048b400400220000e004000100078008080e800d4
:1048c400400220000e004000010878004002200051
:1048d4000e004000100078000080fa00000006007e
:1048e4000000fa00180007000040800090077800dc
:1048f4004f007800104188003400f9004400f900aa
:104904003200f9003600f9004f0778004f06be0068
:104914004f05be004f04be004f03be004f02be0051
:104924004f01be004f00be004200f9000000060027
:10493400100020000080fa00000006000000fa00c9
:104944000080fa00000006000400fa00f07c200059
:1049540001002000008fbe000421ef000021ef00c1
:104964001e0078001008880021058000f0ff280050
:104974000080600000c0a000200588008460a900b9
:104984009460a8000481a80004a1a90005e1a8007e
:104994000080fa00000006000000fa001102800006
:1049a400f0f12f00008060000050a0001002880089
:1049b4000000000000000000104180000000e8003a
:1049c400104188000080fa00000006000000fa0090
:1049d400104180000000e90010418800104180006f
:1049e4000000e00005003a0011028000f0f12f0001
:1049f4000080600010028800000000000080fa00bf
:104a0400000006000200fa00401680000040780012
:104a1400614060000080fb00000f7800e0408000ef
:104a24000000e00009003200e04080008001eb005b
:104a3400a20020008e00780056f70700e10f500016
:104a440003003200d602a80001003700d602a800f5
:104a5400004180004106200009f90700eaff370001
:104a64000200fa00e04080000000e0001100320083
:104a7400e0408000a20020008e00780075f8070056
:104a8400e10f50000a003a00d602a9001e00780087
:104a9400e10f500003003a00cac2a800cae2a9000c
:104aa40004003700cac2a900cae2a8000100370006
:104ab400d602a800004180008001eb000001eb0059
:104ac4008000eb0033f70700e6ff37000200fa002e
:104ad400401680000000d100614060000080fb00af
:104ae400000f7800e04080000000e0000900320080
:104af400f04080008001eb00a20020008e007800ce
:104b040024f70700e10f500003003200d622a8006a
:104b140001003700d622a800004180004106200091
:104b2400d7f80700eaff37000200fa00f0408000df
:104b34000000e00011003200f0408000a2002000dc
:104b44008e00780043f80700e10f50000a003a0095
:104b5400d622a9001e007800e10f500003003a009d
:104b6400cb02a800cb22a90004003700cb02a90085
:104b7400cb22a80001003700d622a8000041800003
:104b84008001eb000001eb008000eb0001f707005f
:104b9400e6ff37000400fa008e80e8008008780001
:104ba4000000eb00000f78000e80e8001000780091
:104bb40061006000004078000004e000060032005c
:104bc4000e80e800100078000000a1008080e8005a
:104bd4000e80e80001087800e9f007002141800018
:104be4000e80e8001000780080804000f03f210033
:104bf400808f50000f003e00214180000e80e800ad
:104c0400100078000080400021418000810f500096
:104c1400080036002141800060822000008f40009f
:104c2400214180000e80e8001000780000804000e0
:104c340020418800d8f007001e0078000080fa00a8
:104c4400000006000200fa00000f78000080fa005d
:104c5400000006000000fa002428ef000080fa009b
:104c6400000006000000fa002141800000402100fd
:104c7400010050000080fa00000006000000fa0065
:104c8400c6c2a900c6e2a900c602a800d202a900b1
:104c9400c702a900c722a900c622a800d222a900df
:104ca40032c0b3008000eb001000200045f607007e
:104cb400004188000041eb0021002000100020008a
:104cc40040f60700e04088000041eb00210020008e
:104cd400100020003bf60700f040880040502200fe
:104ce4008002eb00240020008001eb00320720004a
:104cf400013428006eee0700205322008002eb00ee
:104d0400340020008001eb003207200051342800d9
:104d140067ee0700805622008002eb00240020008a
:104d24008001eb0032072000a134280060ee070068
:104d3400605922008002eb00340020008001eb0067
:104d440032072000f134280059ee070065f007000f
:104d54000000eb000080fa00000006004200f800aa
:104d6400801f78000002200010028800811f780054
:104d7400829fbe00849fbe00869fbe00889fbe00a7
:104d84008a9fbe008c9fbe008e1f78003600f800fc
:104d94003200f8004400f8003400f80010418000ac
:104da400801f7800004080000f087800f809020096
:104db4000000000000408000900778004f00780059
:104dc400104188003400f9004400f9003200f90071
:104dd4003600f9004f0778004f06be004f05be00ad
:104de4004f04be004f03be004f02be004f01be0081
:104df4004f00be004200f900000006000000fa0067
:104e040021e3a90021a3a90001198000f0cf2f00fc
:104e1400008060000019880001198000000e200045
:104e240001007000001988002043a90011198000b6
:104e3400f0ff210000806000101988002343a900be
:104e44002223a9002203a90025e3a9002119800037
:104e540000f0210001007000201988002119800051
:104e6400f00f2e00808060000050200001007000d0
:104e7400201988004119800000ff2f000080600085
:0c4e8400401988000080fa0000000600c1
:020000040000fa
:104e9000220800000200000002000000ef000000f5
:104ea000261c000050000000000000000008000068
:104eb0001c00000000000000260800000014000094
:104ec00000000000240800000200000000000000b4
:104ed0001c080000060000000000000000000000a8
:00000001FF
